{
  "contractName": "BitXGoldSwap",
  "address": "0x15cFEa25fd5848e30d99b577ec0C4BaCbc79588d",
  "abi": [
    {
      "anonymous": false,
      "inputs": [
        {
          "indexed": false,
          "internalType": "uint256",
          "name": "amount",
          "type": "uint256"
        }
      ],
      "name": "AddMoreRewardToken",
      "type": "event"
    },
    {
      "anonymous": false,
      "inputs": [
        {
          "indexed": false,
          "internalType": "uint256",
          "name": "amount",
          "type": "uint256"
        }
      ],
      "name": "Buy",
      "type": "event"
    },
    {
      "anonymous": false,
      "inputs": [
        {
          "indexed": false,
          "internalType": "contract IERC20",
          "name": "token",
          "type": "address"
        },
        {
          "indexed": false,
          "internalType": "uint256",
          "name": "amount",
          "type": "uint256"
        }
      ],
      "name": "Claim",
      "type": "event"
    },
    {
      "anonymous": false,
      "inputs": [
        {
          "indexed": false,
          "internalType": "uint256",
          "name": "amount",
          "type": "uint256"
        }
      ],
      "name": "DepositBitx",
      "type": "event"
    },
    {
      "anonymous": false,
      "inputs": [
        {
          "indexed": true,
          "internalType": "address",
          "name": "previousOwner",
          "type": "address"
        },
        {
          "indexed": true,
          "internalType": "address",
          "name": "newOwner",
          "type": "address"
        }
      ],
      "name": "OwnershipTransferred",
      "type": "event"
    },
    {
      "anonymous": false,
      "inputs": [
        {
          "indexed": true,
          "internalType": "bytes32",
          "name": "role",
          "type": "bytes32"
        },
        {
          "indexed": true,
          "internalType": "bytes32",
          "name": "previousAdminRole",
          "type": "bytes32"
        },
        {
          "indexed": true,
          "internalType": "bytes32",
          "name": "newAdminRole",
          "type": "bytes32"
        }
      ],
      "name": "RoleAdminChanged",
      "type": "event"
    },
    {
      "anonymous": false,
      "inputs": [
        {
          "indexed": true,
          "internalType": "bytes32",
          "name": "role",
          "type": "bytes32"
        },
        {
          "indexed": true,
          "internalType": "address",
          "name": "account",
          "type": "address"
        },
        {
          "indexed": true,
          "internalType": "address",
          "name": "sender",
          "type": "address"
        }
      ],
      "name": "RoleGranted",
      "type": "event"
    },
    {
      "anonymous": false,
      "inputs": [
        {
          "indexed": true,
          "internalType": "bytes32",
          "name": "role",
          "type": "bytes32"
        },
        {
          "indexed": true,
          "internalType": "address",
          "name": "account",
          "type": "address"
        },
        {
          "indexed": true,
          "internalType": "address",
          "name": "sender",
          "type": "address"
        }
      ],
      "name": "RoleRevoked",
      "type": "event"
    },
    {
      "anonymous": false,
      "inputs": [
        {
          "indexed": false,
          "internalType": "uint256",
          "name": "amount",
          "type": "uint256"
        }
      ],
      "name": "Sell",
      "type": "event"
    },
    {
      "anonymous": false,
      "inputs": [],
      "name": "StopTrade",
      "type": "event"
    },
    {
      "inputs": [],
      "name": "ADMIN_ROLE",
      "outputs": [
        {
          "internalType": "bytes32",
          "name": "",
          "type": "bytes32"
        }
      ],
      "stateMutability": "view",
      "type": "function",
      "constant": true
    },
    {
      "inputs": [],
      "name": "DEFAULT_ADMIN_ROLE",
      "outputs": [
        {
          "internalType": "bytes32",
          "name": "",
          "type": "bytes32"
        }
      ],
      "stateMutability": "view",
      "type": "function",
      "constant": true
    },
    {
      "inputs": [
        {
          "internalType": "address",
          "name": "",
          "type": "address"
        }
      ],
      "name": "Referral",
      "outputs": [
        {
          "internalType": "address",
          "name": "",
          "type": "address"
        }
      ],
      "stateMutability": "view",
      "type": "function",
      "constant": true
    },
    {
      "inputs": [
        {
          "internalType": "address",
          "name": "",
          "type": "address"
        }
      ],
      "name": "ReferralStatus",
      "outputs": [
        {
          "internalType": "bool",
          "name": "",
          "type": "bool"
        }
      ],
      "stateMutability": "view",
      "type": "function",
      "constant": true
    },
    {
      "inputs": [],
      "name": "TRANSFER_ROLE",
      "outputs": [
        {
          "internalType": "bytes32",
          "name": "",
          "type": "bytes32"
        }
      ],
      "stateMutability": "view",
      "type": "function",
      "constant": true
    },
    {
      "inputs": [
        {
          "internalType": "bytes32",
          "name": "role",
          "type": "bytes32"
        }
      ],
      "name": "getRoleAdmin",
      "outputs": [
        {
          "internalType": "bytes32",
          "name": "",
          "type": "bytes32"
        }
      ],
      "stateMutability": "view",
      "type": "function",
      "constant": true
    },
    {
      "inputs": [
        {
          "internalType": "bytes32",
          "name": "role",
          "type": "bytes32"
        },
        {
          "internalType": "address",
          "name": "account",
          "type": "address"
        }
      ],
      "name": "grantRole",
      "outputs": [],
      "stateMutability": "nonpayable",
      "type": "function"
    },
    {
      "inputs": [
        {
          "internalType": "bytes32",
          "name": "role",
          "type": "bytes32"
        },
        {
          "internalType": "address",
          "name": "account",
          "type": "address"
        }
      ],
      "name": "hasRole",
      "outputs": [
        {
          "internalType": "bool",
          "name": "",
          "type": "bool"
        }
      ],
      "stateMutability": "view",
      "type": "function",
      "constant": true
    },
    {
      "inputs": [],
      "name": "owner",
      "outputs": [
        {
          "internalType": "address",
          "name": "",
          "type": "address"
        }
      ],
      "stateMutability": "view",
      "type": "function",
      "constant": true
    },
    {
      "inputs": [],
      "name": "renounceOwnership",
      "outputs": [],
      "stateMutability": "nonpayable",
      "type": "function"
    },
    {
      "inputs": [
        {
          "internalType": "bytes32",
          "name": "role",
          "type": "bytes32"
        },
        {
          "internalType": "address",
          "name": "account",
          "type": "address"
        }
      ],
      "name": "renounceRole",
      "outputs": [],
      "stateMutability": "nonpayable",
      "type": "function"
    },
    {
      "inputs": [
        {
          "internalType": "bytes32",
          "name": "role",
          "type": "bytes32"
        },
        {
          "internalType": "address",
          "name": "account",
          "type": "address"
        }
      ],
      "name": "revokeRole",
      "outputs": [],
      "stateMutability": "nonpayable",
      "type": "function"
    },
    {
      "inputs": [
        {
          "internalType": "bytes4",
          "name": "interfaceId",
          "type": "bytes4"
        }
      ],
      "name": "supportsInterface",
      "outputs": [
        {
          "internalType": "bool",
          "name": "",
          "type": "bool"
        }
      ],
      "stateMutability": "view",
      "type": "function",
      "constant": true
    },
    {
      "inputs": [
        {
          "internalType": "address",
          "name": "newOwner",
          "type": "address"
        }
      ],
      "name": "transferOwnership",
      "outputs": [],
      "stateMutability": "nonpayable",
      "type": "function"
    },
    {
      "inputs": [
        {
          "internalType": "uint256",
          "name": "_ratio",
          "type": "uint256"
        },
        {
          "internalType": "contract IERC20",
          "name": "_USDT",
          "type": "address"
        },
        {
          "internalType": "contract IERC20",
          "name": "_BXG",
          "type": "address"
        }
      ],
      "name": "__BitXSwap_init",
      "outputs": [],
      "stateMutability": "nonpayable",
      "type": "function"
    },
    {
      "inputs": [
        {
          "internalType": "address",
          "name": "_referral",
          "type": "address"
        }
      ],
      "name": "addReferral",
      "outputs": [],
      "stateMutability": "nonpayable",
      "type": "function"
    },
    {
      "inputs": [
        {
          "internalType": "uint256",
          "name": "_amount",
          "type": "uint256"
        }
      ],
      "name": "swapBuy",
      "outputs": [
        {
          "internalType": "bool",
          "name": "",
          "type": "bool"
        }
      ],
      "stateMutability": "nonpayable",
      "type": "function"
    },
    {
      "inputs": [
        {
          "internalType": "uint256",
          "name": "_amount",
          "type": "uint256"
        }
      ],
      "name": "swapSell",
      "outputs": [
        {
          "internalType": "bool",
          "name": "",
          "type": "bool"
        }
      ],
      "stateMutability": "nonpayable",
      "type": "function"
    },
    {
      "inputs": [
        {
          "internalType": "uint256",
          "name": "_amount",
          "type": "uint256"
        }
      ],
      "name": "depositBitXToken",
      "outputs": [],
      "stateMutability": "nonpayable",
      "type": "function"
    },
    {
      "inputs": [
        {
          "internalType": "uint256",
          "name": "_amount",
          "type": "uint256"
        }
      ],
      "name": "depositUSDTToken",
      "outputs": [],
      "stateMutability": "nonpayable",
      "type": "function"
    },
    {
      "inputs": [],
      "name": "getBitXTokenBalance",
      "outputs": [
        {
          "internalType": "uint256",
          "name": "balance",
          "type": "uint256"
        }
      ],
      "stateMutability": "view",
      "type": "function",
      "constant": true
    },
    {
      "inputs": [],
      "name": "getUSDTTokenBalance",
      "outputs": [
        {
          "internalType": "uint256",
          "name": "balance",
          "type": "uint256"
        }
      ],
      "stateMutability": "view",
      "type": "function",
      "constant": true
    },
    {
      "inputs": [],
      "name": "withdrawBitX",
      "outputs": [
        {
          "internalType": "bool",
          "name": "",
          "type": "bool"
        }
      ],
      "stateMutability": "nonpayable",
      "type": "function"
    },
    {
      "inputs": [],
      "name": "withdrawUSDT",
      "outputs": [
        {
          "internalType": "bool",
          "name": "",
          "type": "bool"
        }
      ],
      "stateMutability": "nonpayable",
      "type": "function"
    },
    {
      "inputs": [],
      "name": "stopTrading",
      "outputs": [],
      "stateMutability": "nonpayable",
      "type": "function"
    },
    {
      "inputs": [
        {
          "internalType": "uint256",
          "name": "_ratio",
          "type": "uint256"
        }
      ],
      "name": "changeRatio",
      "outputs": [],
      "stateMutability": "nonpayable",
      "type": "function"
    },
    {
      "inputs": [],
      "name": "getRatio",
      "outputs": [
        {
          "internalType": "uint256",
          "name": "",
          "type": "uint256"
        }
      ],
      "stateMutability": "view",
      "type": "function",
      "constant": true
    },
    {
      "inputs": [
        {
          "internalType": "uint256",
          "name": "_commissionRate",
          "type": "uint256"
        }
      ],
      "name": "changeComission",
      "outputs": [],
      "stateMutability": "nonpayable",
      "type": "function"
    },
    {
      "inputs": [],
      "name": "getComission",
      "outputs": [
        {
          "internalType": "uint256",
          "name": "",
          "type": "uint256"
        }
      ],
      "stateMutability": "view",
      "type": "function",
      "constant": true
    },
    {
      "inputs": [
        {
          "internalType": "address",
          "name": "_to",
          "type": "address"
        },
        {
          "internalType": "uint256",
          "name": "_amount",
          "type": "uint256"
        }
      ],
      "name": "transferReward",
      "outputs": [],
      "stateMutability": "nonpayable",
      "type": "function"
    }
  ],
  "bytecode": "0x608060405234801561001057600080fd5b5061202f806100206000396000f3fe608060405234801561001057600080fd5b50600436106101da5760003560e01c806375b238fc11610104578063db734665116100a2578063ec1ebd7a11610071578063ec1ebd7a1461040a578063f2fde38b14610412578063f6a3325314610425578063f7618dae1461043857600080fd5b8063db734665146103be578063dd6d3ca7146103c6578063e8aca46a146103ce578063ea19fb61146103e157600080fd5b8063a217fddf116100de578063a217fddf14610388578063b01ce4fd14610390578063c711802c146103a3578063d547741f146103ab57600080fd5b806375b238fc146103295780638da5cb5b1461035057806391d148541461037557600080fd5b8063248a9ca31161017c5780634ce8d8a41161014b5780634ce8d8a4146102fe5780635322888214610311578063715018a6146103195780637185f1631461032157600080fd5b8063248a9ca3146102ad5780632f2ff15d146102d0578063362e496b146102e357806336568abe146102eb57600080fd5b806311b8da00116101b857806311b8da001461023f57806315490ebb14610252578063206b60f91461026557806323bd05591461029a57600080fd5b80630167b65c146101df57806301ffc9a7146102175780630f9c7e811461022a575b600080fd5b6102026101ed366004611c9f565b60ce6020526000908152604090205460ff1681565b60405190151581526020015b60405180910390f35b610202610225366004611d4d565b61044b565b61023d610238366004611d06565b610482565b005b61023d61024d366004611d06565b6104ba565b61023d610260366004611cbb565b6105a1565b61028c7f8502233096d909befbda0999bb8ea2f3a6be3c138b9fbf003752a4c8bce86f6c81565b60405190815260200161020e565b6102026102a8366004611d06565b610658565b61028c6102bb366004611d06565b60009081526097602052604090206001015490565b61023d6102de366004611d1e565b610acb565b610202610af6565b61023d6102f9366004611d1e565b610dac565b61023d61030c366004611d8d565b610e2a565b61028c610f26565b61023d610fa8565b61023d610fde565b61028c7fa49807205ce4d355092ef5a8a18f56e8913cf4a201fbe287825b095693c2177581565b6033546001600160a01b03165b6040516001600160a01b03909116815260200161020e565b610202610383366004611d1e565b611040565b61028c600081565b61023d61039e366004611d06565b61106b565b61028c6110c9565b61023d6103b9366004611d1e565b6110fa565b610202611120565b60cc5461028c565b61023d6103dc366004611c9f565b61135e565b61035d6103ef366004611c9f565b60cf602052600090815260409020546001600160a01b031681565b60cb5461028c565b61023d610420366004611c9f565b6113f4565b61023d610433366004611d06565b61148f565b610202610446366004611d06565b6114c0565b60006001600160e01b03198216637965db0b60e01b148061047c57506301ffc9a760e01b6001600160e01b03198316145b92915050565b6033546001600160a01b031633146104b55760405162461bcd60e51b81526004016104ac90611ee8565b60405180910390fd5b60cc55565b6033546001600160a01b031633146104e45760405162461bcd60e51b81526004016104ac90611ee8565b60c9546040516323b872dd60e01b81526001600160a01b03909116906323b872dd9061051890339030908690600401611e43565b602060405180830381600087803b15801561053257600080fd5b505af1158015610546573d6000803e3d6000fd5b505050506040513d601f19601f8201168201806040525081019061056a9190611ce6565b506040518181527f79b704a32544f12a677346065e16347b14c63f9babc65b59503eb542b535ae439060200160405180910390a150565b7f8502233096d909befbda0999bb8ea2f3a6be3c138b9fbf003752a4c8bce86f6c6105cc8133611749565b60c95460405163a9059cbb60e01b81526001600160a01b038581166004830152602482018590529091169063a9059cbb90604401602060405180830381600087803b15801561061a57600080fd5b505af115801561062e573d6000803e3d6000fd5b505050506040513d601f19601f820116820180604052508101906106529190611ce6565b50505050565b60ca54600090600160a01b900460ff1615156001146106b45760405162461bcd60e51b8152602060048201526018602482015277151c985919481a5cc81b9bdd081cdd185c9d1959081e595d60421b60448201526064016104ac565b60c9546040516370a0823160e01b815230600482015283916001600160a01b0316906370a082319060240160206040518083038186803b1580156106f757600080fd5b505afa15801561070b573d6000803e3d6000fd5b505050506040513d601f19601f8201168201806040525081019061072f9190611d75565b1161077c5760405162461bcd60e51b815260206004820152601f60248201527f496e73756666696369656e7420416d6f756e7420696e20636f6e74726163740060448201526064016104ac565b600061079360cb54846117ad90919063ffffffff16565b60ca546040516370a0823160e01b815233600482015291925082916001600160a01b03909116906370a082319060240160206040518083038186803b1580156107db57600080fd5b505afa1580156107ef573d6000803e3d6000fd5b505050506040513d601f19601f820116820180604052508101906108139190611d75565b10156108615760405162461bcd60e51b815260206004820152601a60248201527f596f75206861766520496e73756666696369656e74205553445400000000000060448201526064016104ac565b33600090815260cf60205260409020546001600160a01b03161561097357600060648260cc546108919190611f55565b61089b9190611f35565b90506108a78183611f74565b60ca5433600081815260cf6020526040908190205490516323b872dd60e01b81529395506001600160a01b03928316936323b872dd936108ee939216908690600401611e43565b602060405180830381600087803b15801561090857600080fd5b505af115801561091c573d6000803e3d6000fd5b505050506040513d601f19601f820116820180604052508101906109409190611ce6565b505033600090815260cf60209081526040808320546001600160a01b0316835260ce9091529020805460ff191660011790555b60ca546001600160a01b03166323b872dd336109976033546001600160a01b031690565b846040518463ffffffff1660e01b81526004016109b693929190611e43565b602060405180830381600087803b1580156109d057600080fd5b505af11580156109e4573d6000803e3d6000fd5b505050506040513d601f19601f82011682018060405250810190610a089190611ce6565b5060c95460405163a9059cbb60e01b8152336004820152602481018590526001600160a01b039091169063a9059cbb90604401602060405180830381600087803b158015610a5557600080fd5b505af1158015610a69573d6000803e3d6000fd5b505050506040513d601f19601f82011682018060405250810190610a8d9190611ce6565b506040518381527f3e32821836f4caf5b64b2c8c6b460049a9797526960d31502f7575b8da39d5ae906020015b60405180910390a150600192915050565b600082815260976020526040902060010154610ae78133611749565b610af183836117c0565b505050565b6033546000906001600160a01b03163314610b235760405162461bcd60e51b81526004016104ac90611ee8565b60ca546040516370a0823160e01b81523060048201526000916001600160a01b0316906370a082319060240160206040518083038186803b158015610b6757600080fd5b505afa158015610b7b573d6000803e3d6000fd5b505050506040513d601f19601f82011682018060405250810190610b9f9190611d75565b11610bde5760405162461bcd60e51b815260206004820152600f60248201526e62616c616e6365206973207a65726f60881b60448201526064016104ac565b60ca5460c9546040516370a0823160e01b81523060048201526001600160a01b039283169263a9059cbb9233929116906370a082319060240160206040518083038186803b158015610c2f57600080fd5b505afa158015610c43573d6000803e3d6000fd5b505050506040513d601f19601f82011682018060405250810190610c679190611d75565b6040516001600160e01b031960e085901b1681526001600160a01b0390921660048301526024820152604401602060405180830381600087803b158015610cad57600080fd5b505af1158015610cc1573d6000803e3d6000fd5b505050506040513d601f19601f82011682018060405250810190610ce59190611ce6565b5060ca546040516370a0823160e01b81523060048201527f47cee97cb7acd717b3c0aa1435d004cd5b3c8c57d70dbceb4e4458bbd60e39d4916001600160a01b03169081906370a08231906024015b60206040518083038186803b158015610d4c57600080fd5b505afa158015610d60573d6000803e3d6000fd5b505050506040513d601f19601f82011682018060405250810190610d849190611d75565b604080516001600160a01b03909316835260208301919091520160405180910390a150600190565b6001600160a01b0381163314610e1c5760405162461bcd60e51b815260206004820152602f60248201527f416363657373436f6e74726f6c3a2063616e206f6e6c792072656e6f756e636560448201526e103937b632b9903337b91039b2b63360891b60648201526084016104ac565b610e268282611846565b5050565b600054610100900460ff1680610e43575060005460ff16155b610e5f5760405162461bcd60e51b81526004016104ac90611e9a565b600054610100900460ff16158015610e81576000805461ffff19166101011790555b610e896118ad565b610e91611928565b610e9c600033611997565b610ec67fa49807205ce4d355092ef5a8a18f56e8913cf4a201fbe287825b095693c2177533610acb565b60cb84905560c980546001600160a01b038085166001600160a01b03199092169190911790915560ca80546001600160a81b03191691851691909117600160a01b179055600a60cc558015610652576000805461ff001916905550505050565b60c9546040516370a0823160e01b81523060048201526000916001600160a01b0316906370a08231906024015b60206040518083038186803b158015610f6b57600080fd5b505afa158015610f7f573d6000803e3d6000fd5b505050506040513d601f19601f82011682018060405250810190610fa39190611d75565b905090565b6033546001600160a01b03163314610fd25760405162461bcd60e51b81526004016104ac90611ee8565b610fdc60006119a1565b565b6033546001600160a01b031633146110085760405162461bcd60e51b81526004016104ac90611ee8565b60ca805460ff60a01b191690556040517f2f52f4f16ece5e1dd274488a8ec73e0d6093a4fc012a01873a0b3283a704917290600090a1565b60009182526097602090815260408084206001600160a01b0393909316845291905290205460ff1690565b6033546001600160a01b031633146110955760405162461bcd60e51b81526004016104ac90611ee8565b60ca546040516323b872dd60e01b81526001600160a01b03909116906323b872dd9061051890339030908690600401611e43565b60ca546040516370a0823160e01b81523060048201526000916001600160a01b0316906370a0823190602401610f53565b6000828152609760205260409020600101546111168133611749565b610af18383611846565b6033546000906001600160a01b0316331461114d5760405162461bcd60e51b81526004016104ac90611ee8565b60c9546040516370a0823160e01b81523060048201526000916001600160a01b0316906370a082319060240160206040518083038186803b15801561119157600080fd5b505afa1580156111a5573d6000803e3d6000fd5b505050506040513d601f19601f820116820180604052508101906111c99190611d75565b116112085760405162461bcd60e51b815260206004820152600f60248201526e62616c616e6365206973207a65726f60881b60448201526064016104ac565b60c9546040516370a0823160e01b81523060048201526001600160a01b039091169063a9059cbb90339083906370a082319060240160206040518083038186803b15801561125557600080fd5b505afa158015611269573d6000803e3d6000fd5b505050506040513d601f19601f8201168201806040525081019061128d9190611d75565b6040516001600160e01b031960e085901b1681526001600160a01b0390921660048301526024820152604401602060405180830381600087803b1580156112d357600080fd5b505af11580156112e7573d6000803e3d6000fd5b505050506040513d601f19601f8201168201806040525081019061130b9190611ce6565b5060c9546040516370a0823160e01b81523060048201527f47cee97cb7acd717b3c0aa1435d004cd5b3c8c57d70dbceb4e4458bbd60e39d4916001600160a01b03169081906370a0823190602401610d34565b6001600160a01b03818116600090815260cf602052604090205416156113b95760405162461bcd60e51b815260206004820152601060248201526f105b1c9958591e481c9959995c9c995960821b60448201526064016104ac565b6001600160a01b0316600090815260cf6020908152604080832080546001600160a01b0319163317905560ce9091529020805460ff19169055565b6033546001600160a01b0316331461141e5760405162461bcd60e51b81526004016104ac90611ee8565b6001600160a01b0381166114835760405162461bcd60e51b815260206004820152602660248201527f4f776e61626c653a206e6577206f776e657220697320746865207a65726f206160448201526564647265737360d01b60648201526084016104ac565b61148c816119a1565b50565b7fa49807205ce4d355092ef5a8a18f56e8913cf4a201fbe287825b095693c217756114ba8133611749565b5060cb55565b60ca54600090600160a01b900460ff16151560011461151c5760405162461bcd60e51b8152602060048201526018602482015277151c985919481a5cc81b9bdd081cdd185c9d1959081e595d60421b60448201526064016104ac565b60c9546040516370a0823160e01b815230600482015283916001600160a01b0316906370a082319060240160206040518083038186803b15801561155f57600080fd5b505afa158015611573573d6000803e3d6000fd5b505050506040513d601f19601f820116820180604052508101906115979190611d75565b116115e45760405162461bcd60e51b815260206004820152601f60248201527f496e73756666696369656e7420416d6f756e7420696e20636f6e74726163740060448201526064016104ac565b60006115fb60cb54846117ad90919063ffffffff16565b60c9549091506001600160a01b03166323b872dd336116226033546001600160a01b031690565b866040518463ffffffff1660e01b815260040161164193929190611e43565b602060405180830381600087803b15801561165b57600080fd5b505af115801561166f573d6000803e3d6000fd5b505050506040513d601f19601f820116820180604052508101906116939190611ce6565b5060ca5460405163a9059cbb60e01b8152336004820152602481018390526001600160a01b039091169063a9059cbb90604401602060405180830381600087803b1580156116e057600080fd5b505af11580156116f4573d6000803e3d6000fd5b505050506040513d601f19601f820116820180604052508101906117189190611ce6565b506040518381527f522881958b3c4a6fc0840ad3b7fb947b881edc28c004245a62541647422ade9790602001610aba565b6117538282611040565b610e265761176b816001600160a01b031660146119f3565b6117768360206119f3565b604051602001611787929190611dce565b60408051601f198184030181529082905262461bcd60e51b82526104ac91600401611e67565b60006117b98284611f55565b9392505050565b6117ca8282611040565b610e265760008281526097602090815260408083206001600160a01b03851684529091529020805460ff191660011790556118023390565b6001600160a01b0316816001600160a01b0316837f2f8788117e7eff1d82e926ec794901d17c78024a50270940304540a733656f0d60405160405180910390a45050565b6118508282611040565b15610e265760008281526097602090815260408083206001600160a01b0385168085529252808320805460ff1916905551339285917ff6391f5c32d9c69d2a47ea670b442974b53935d1edc7fd64eb21e047a839171b9190a45050565b600054610100900460ff16806118c6575060005460ff16155b6118e25760405162461bcd60e51b81526004016104ac90611e9a565b600054610100900460ff16158015611904576000805461ffff19166101011790555b61190c611bd5565b611914611c3f565b801561148c576000805461ff001916905550565b600054610100900460ff1680611941575060005460ff16155b61195d5760405162461bcd60e51b81526004016104ac90611e9a565b600054610100900460ff1615801561197f576000805461ffff19166101011790555b611987611bd5565b61198f611bd5565b611914611bd5565b610e2682826117c0565b603380546001600160a01b038381166001600160a01b0319831681179093556040519116919082907f8be0079c531659141344cd1fd0a4f28419497f9722a3daafe3b4186f6b6457e090600090a35050565b60606000611a02836002611f55565b611a0d906002611f1d565b67ffffffffffffffff811115611a3357634e487b7160e01b600052604160045260246000fd5b6040519080825280601f01601f191660200182016040528015611a5d576020820181803683370190505b509050600360fc1b81600081518110611a8657634e487b7160e01b600052603260045260246000fd5b60200101906001600160f81b031916908160001a905350600f60fb1b81600181518110611ac357634e487b7160e01b600052603260045260246000fd5b60200101906001600160f81b031916908160001a9053506000611ae7846002611f55565b611af2906001611f1d565b90505b6001811115611b86576f181899199a1a9b1b9c1cb0b131b232b360811b85600f1660108110611b3457634e487b7160e01b600052603260045260246000fd5b1a60f81b828281518110611b5857634e487b7160e01b600052603260045260246000fd5b60200101906001600160f81b031916908160001a90535060049490941c93611b7f81611fb7565b9050611af5565b5083156117b95760405162461bcd60e51b815260206004820181905260248201527f537472696e67733a20686578206c656e67746820696e73756666696369656e7460448201526064016104ac565b600054610100900460ff1680611bee575060005460ff16155b611c0a5760405162461bcd60e51b81526004016104ac90611e9a565b600054610100900460ff16158015611914576000805461ffff1916610101179055801561148c576000805461ff001916905550565b600054610100900460ff1680611c58575060005460ff16155b611c745760405162461bcd60e51b81526004016104ac90611e9a565b600054610100900460ff16158015611c96576000805461ffff19166101011790555b611914336119a1565b600060208284031215611cb0578081fd5b81356117b981611fe4565b60008060408385031215611ccd578081fd5b8235611cd881611fe4565b946020939093013593505050565b600060208284031215611cf7578081fd5b815180151581146117b9578182fd5b600060208284031215611d17578081fd5b5035919050565b60008060408385031215611d30578182fd5b823591506020830135611d4281611fe4565b809150509250929050565b600060208284031215611d5e578081fd5b81356001600160e01b0319811681146117b9578182fd5b600060208284031215611d86578081fd5b5051919050565b600080600060608486031215611da1578081fd5b833592506020840135611db381611fe4565b91506040840135611dc381611fe4565b809150509250925092565b7f416363657373436f6e74726f6c3a206163636f756e7420000000000000000000815260008351611e06816017850160208801611f8b565b7001034b99036b4b9b9b4b733903937b6329607d1b6017918401918201528351611e37816028840160208801611f8b565b01602801949350505050565b6001600160a01b039384168152919092166020820152604081019190915260600190565b6020815260008251806020840152611e86816040850160208701611f8b565b601f01601f19169190910160400192915050565b6020808252602e908201527f496e697469616c697a61626c653a20636f6e747261637420697320616c72656160408201526d191e481a5b9a5d1a585b1a5e995960921b606082015260800190565b6020808252818101527f4f776e61626c653a2063616c6c6572206973206e6f7420746865206f776e6572604082015260600190565b60008219821115611f3057611f30611fce565b500190565b600082611f5057634e487b7160e01b81526012600452602481fd5b500490565b6000816000190483118215151615611f6f57611f6f611fce565b500290565b600082821015611f8657611f86611fce565b500390565b60005b83811015611fa6578181015183820152602001611f8e565b838111156106525750506000910152565b600081611fc657611fc6611fce565b506000190190565b634e487b7160e01b600052601160045260246000fd5b6001600160a01b038116811461148c57600080fdfea2646970667358221220a8872d068321120246e5ea26e6dd73661671db39df6002e61610135002bf533f64736f6c63430008040033",
  "immutableReferences": {},
  "source": "// SPDX-License-Identifier: MIT\npragma solidity 0.8.4;\n\nimport \"@openzeppelin/contracts/token/ERC20/IERC20.sol\";\nimport \"@openzeppelin/contracts-upgradeable/access/OwnableUpgradeable.sol\";\nimport \"@openzeppelin/contracts-upgradeable/access/AccessControlUpgradeable.sol\";\nimport \"@openzeppelin/contracts/utils/math/SafeMath.sol\";\nimport \"./IBitXGoldSwap.sol\";\n\ncontract BitXGoldSwap is\n    OwnableUpgradeable,\n    AccessControlUpgradeable,\n    IBitXGoldSwap\n{\n    using SafeMath for uint256;\n    bytes32 public constant ADMIN_ROLE = keccak256(\"ADMIN_ROLE\");\n    bytes32 public constant TRANSFER_ROLE = keccak256(\"TRANSFER_ROLE\");\n\n    IERC20 BXG;\n    IERC20 USDT;\n    bool initialized;\n    uint256 ratio;\n    uint256 commissionRate;\n    address private _owner;\n    mapping(address => bool) public ReferralStatus;\n    mapping(address => address) public Referral;\n\n    event Buy(uint256 amount);\n    event Sell(uint256 amount);\n    event AddMoreRewardToken(uint256 amount);\n    event DepositBitx(uint256 amount);\n    event StopTrade();\n    event Claim(IERC20 token, uint256 amount);\n\n    /**\n     * @dev BitXSwap Upgradable initializer\n     * @param _ratio _ratio USDT & BXG ratio\n     */\n\n    function __BitXSwap_init(\n        uint256 _ratio,\n        IERC20 _USDT,\n        IERC20 _BXG\n    ) external initializer {\n        __Ownable_init();\n        __AccessControl_init();\n        _setupRole(DEFAULT_ADMIN_ROLE, _msgSender());\n        grantRole(ADMIN_ROLE, _msgSender());\n        ratio = _ratio;\n        BXG = _BXG;\n        USDT = _USDT;\n        initialized = true;\n        commissionRate = 10;\n    }\n\n    /**\n     * @dev add referral To be called by the person who referred a user\n     * @param _referral address of referral\n     */\n\n    function addReferral(address _referral) public {\n        require(Referral[_referral] == address(0), \"Already referred\");\n        Referral[_referral] = msg.sender;\n        ReferralStatus[_referral] = false;\n    }\n\n    /**\n     * @dev Swap USDT and BXG\n     * @param _amount Amount to be transfered in contract\n     */\n\n    function swapBuy(uint256 _amount) public returns (bool) {\n        require(initialized == true, \"Trade is not started yet\");\n        require(\n            (BXG.balanceOf(address(this)) > _amount),\n            \"Insufficient Amount in contract\"\n        );\n\n        uint256 usdt_amount = _amount.mul(ratio);\n        require(\n            USDT.balanceOf(msg.sender) >= usdt_amount,\n            \"You have Insufficient USDT\"\n        );\n\n        if(Referral[msg.sender]!=address(0)){\n        uint256 referralReward = (commissionRate * usdt_amount) / 100;\n        usdt_amount = usdt_amount - referralReward;\n\n        USDT.transferFrom(msg.sender, Referral[msg.sender], referralReward);\n        ReferralStatus[Referral[msg.sender]] = true;\n\n        }\n        \n        USDT.transferFrom(msg.sender, owner(), usdt_amount);\n        BXG.transfer(msg.sender, _amount);\n        emit Buy(_amount);\n        return true;\n    }\n\n    /**\n     * @dev Swap BXG and USDT\n     * @param _amount Amount to be transfered in contract\n     */\n\n    function swapSell(uint256 _amount) public returns (bool) {\n        require(initialized == true, \"Trade is not started yet\");\n        require(\n            (BXG.balanceOf(address(this)) > _amount),\n            \"Insufficient Amount in contract\"\n        );\n        uint256 rewardamount = _amount.mul(ratio);\n        BXG.transferFrom(msg.sender, owner(), _amount);\n        USDT.transfer(msg.sender, rewardamount);\n        emit Sell(_amount);\n        return true;\n    }\n\n    /**\n     * @dev transfer bitx tokens to contract\n     * @param _amount amount to be transfered\n     */\n\n    function depositBitXToken(uint256 _amount) public onlyOwner {\n        BXG.transferFrom(msg.sender, address(this), _amount);\n        emit DepositBitx(_amount);\n    }\n\n    /**\n     * @dev transfer USDT tokens to contract\n     * @param _amount amount to be transfered\n     */\n\n    function depositUSDTToken(uint256 _amount) public onlyOwner {\n        USDT.transferFrom(msg.sender, address(this), _amount);\n        emit DepositBitx(_amount);\n    }\n\n    /**\n     * @dev Contract balance of BXG Token\n     */\n\n    function getBitXTokenBalance() public view returns (uint256 balance) {\n        return BXG.balanceOf(address(this));\n    }\n\n    /**\n     * @dev Contract balance of USDT Token\n     */\n\n    function getUSDTTokenBalance() public view returns (uint256 balance) {\n        return USDT.balanceOf(address(this));\n    }\n\n    /**\n     * @dev Withdraw BXG all the tokens from the contract\n     */\n\n    function withdrawBitX() public onlyOwner returns (bool) {\n        require(BXG.balanceOf(address(this)) > 0, \"balance is zero\");\n        BXG.transfer(msg.sender, BXG.balanceOf(address(this)));\n        emit Claim(BXG, BXG.balanceOf(address(this)));\n        return true;\n    }\n\n    /**\n     * @dev Withdraw USDT all the tokens from the contract\n     */\n\n    function withdrawUSDT() public onlyOwner returns (bool) {\n        require(USDT.balanceOf(address(this)) > 0, \"balance is zero\");\n        USDT.transfer(msg.sender, BXG.balanceOf(address(this)));\n        emit Claim(USDT, USDT.balanceOf(address(this)));\n        return true;\n    }\n\n    /**\n     * @dev Stop trading\n     */\n\n    function stopTrading() public onlyOwner {\n        initialized = false;\n        emit StopTrade();\n    }\n\n    /**\n     * @dev change the ratio\n     * @param _ratio USDT & BXG ratio\n     */\n\n    function changeRatio(uint256 _ratio) public onlyRole(ADMIN_ROLE) {\n        ratio = _ratio;\n    }\n\n    /**\n     * @dev Get the ratio\n     */\n\n    function getRatio() public view returns (uint256) {\n        return ratio;\n    }\n\n    /**\n     * @dev change the comission ratio\n     * @param _commissionRate USDT & BXG ratio\n     */\n\n    function changeComission(uint256 _commissionRate) public onlyOwner {\n        commissionRate = _commissionRate;\n    }\n\n    /**\n     * @dev Get the commission Rate\n     */\n\n    function getComission() public view returns (uint256) {\n        return commissionRate;\n    }\n\n    function transferReward(address _to, uint256 _amount)\n        external\n        override\n        onlyRole(TRANSFER_ROLE)\n    {\n        BXG.transfer(_to, _amount);\n    }\n}\n",
  "sourcePath": "/Users/talhajaami/Desktop/KwikTrustMainnet/contracts/BitXGoldSwap.sol",
  "compiler": {
    "name": "solc",
    "version": "0.8.4+commit.c7e474f2.Emscripten.clang"
  },
  "schemaVersion": "3.4.10",
  "updatedAt": "2023-01-31T19:37:59.908Z",
  "networkType": "ethereum",
  "devdoc": {
    "kind": "dev",
    "methods": {
      "__BitXSwap_init(uint256,address,address)": {
        "details": "BitXSwap Upgradable initializer",
        "params": {
          "_ratio": "_ratio USDT & BXG ratio"
        }
      },
      "addReferral(address)": {
        "details": "add referral To be called by the person who referred a user",
        "params": {
          "_referral": "address of referral"
        }
      },
      "changeComission(uint256)": {
        "details": "change the comission ratio",
        "params": {
          "_commissionRate": "USDT & BXG ratio"
        }
      },
      "changeRatio(uint256)": {
        "details": "change the ratio",
        "params": {
          "_ratio": "USDT & BXG ratio"
        }
      },
      "depositBitXToken(uint256)": {
        "details": "transfer bitx tokens to contract",
        "params": {
          "_amount": "amount to be transfered"
        }
      },
      "depositUSDTToken(uint256)": {
        "details": "transfer USDT tokens to contract",
        "params": {
          "_amount": "amount to be transfered"
        }
      },
      "getBitXTokenBalance()": {
        "details": "Contract balance of BXG Token"
      },
      "getComission()": {
        "details": "Get the commission Rate"
      },
      "getRatio()": {
        "details": "Get the ratio"
      },
      "getRoleAdmin(bytes32)": {
        "details": "Returns the admin role that controls `role`. See {grantRole} and {revokeRole}. To change a role's admin, use {_setRoleAdmin}."
      },
      "getUSDTTokenBalance()": {
        "details": "Contract balance of USDT Token"
      },
      "grantRole(bytes32,address)": {
        "details": "Grants `role` to `account`. If `account` had not been already granted `role`, emits a {RoleGranted} event. Requirements: - the caller must have ``role``'s admin role."
      },
      "hasRole(bytes32,address)": {
        "details": "Returns `true` if `account` has been granted `role`."
      },
      "owner()": {
        "details": "Returns the address of the current owner."
      },
      "renounceOwnership()": {
        "details": "Leaves the contract without owner. It will not be possible to call `onlyOwner` functions anymore. Can only be called by the current owner. NOTE: Renouncing ownership will leave the contract without an owner, thereby removing any functionality that is only available to the owner."
      },
      "renounceRole(bytes32,address)": {
        "details": "Revokes `role` from the calling account. Roles are often managed via {grantRole} and {revokeRole}: this function's purpose is to provide a mechanism for accounts to lose their privileges if they are compromised (such as when a trusted device is misplaced). If the calling account had been granted `role`, emits a {RoleRevoked} event. Requirements: - the caller must be `account`."
      },
      "revokeRole(bytes32,address)": {
        "details": "Revokes `role` from `account`. If `account` had been granted `role`, emits a {RoleRevoked} event. Requirements: - the caller must have ``role``'s admin role."
      },
      "stopTrading()": {
        "details": "Stop trading"
      },
      "supportsInterface(bytes4)": {
        "details": "See {IERC165-supportsInterface}."
      },
      "swapBuy(uint256)": {
        "details": "Swap USDT and BXG",
        "params": {
          "_amount": "Amount to be transfered in contract"
        }
      },
      "swapSell(uint256)": {
        "details": "Swap BXG and USDT",
        "params": {
          "_amount": "Amount to be transfered in contract"
        }
      },
      "transferOwnership(address)": {
        "details": "Transfers ownership of the contract to a new account (`newOwner`). Can only be called by the current owner."
      },
      "withdrawBitX()": {
        "details": "Withdraw BXG all the tokens from the contract"
      },
      "withdrawUSDT()": {
        "details": "Withdraw USDT all the tokens from the contract"
      }
    },
    "version": 1
  },
  "userdoc": {
    "kind": "user",
    "methods": {},
    "version": 1
  }
}