{
  "_format": "hh-sol-artifact-1",
  "contractName": "BitXStaking",
  "address": "0x3fF6598b41e4f47d8f6BD4fB40FEcA7539F144F6",
  "sourceName": "contracts/Stake.sol",
  "abi": [
    {
      "inputs": [
        {
          "internalType": "contract IERC20",
          "name": "_bxg",
          "type": "address"
        },
        {
          "internalType": "contract IBitXGoldSwap",
          "name": "_pool",
          "type": "address"
        }
      ],
      "stateMutability": "nonpayable",
      "type": "constructor"
    },
    {
      "anonymous": false,
      "inputs": [
        {
          "indexed": false,
          "internalType": "address",
          "name": "staker",
          "type": "address"
        },
        {
          "indexed": false,
          "internalType": "uint256",
          "name": "amountClaimed",
          "type": "uint256"
        }
      ],
      "name": "Claim",
      "type": "event"
    },
    {
      "anonymous": false,
      "inputs": [
        {
          "indexed": true,
          "internalType": "address",
          "name": "previousOwner",
          "type": "address"
        },
        {
          "indexed": true,
          "internalType": "address",
          "name": "newOwner",
          "type": "address"
        }
      ],
      "name": "OwnershipTransferred",
      "type": "event"
    },
    {
      "anonymous": false,
      "inputs": [
        {
          "indexed": false,
          "internalType": "uint256",
          "name": "referralReward1",
          "type": "uint256"
        },
        {
          "indexed": false,
          "internalType": "uint256",
          "name": "referralReward2",
          "type": "uint256"
        },
        {
          "indexed": false,
          "internalType": "uint256",
          "name": "referralReward3",
          "type": "uint256"
        }
      ],
      "name": "ReferralsAwarded",
      "type": "event"
    },
    {
      "anonymous": false,
      "inputs": [
        {
          "indexed": false,
          "internalType": "address",
          "name": "staker",
          "type": "address"
        },
        {
          "indexed": false,
          "internalType": "uint256",
          "name": "amountStaked",
          "type": "uint256"
        },
        {
          "indexed": false,
          "internalType": "uint256",
          "name": "stakedId",
          "type": "uint256"
        }
      ],
      "name": "Stake",
      "type": "event"
    },
    {
      "anonymous": false,
      "inputs": [
        {
          "indexed": false,
          "internalType": "address",
          "name": "staker",
          "type": "address"
        },
        {
          "indexed": false,
          "internalType": "uint256",
          "name": "amountUnstaked",
          "type": "uint256"
        }
      ],
      "name": "Unstake",
      "type": "event"
    },
    {
      "inputs": [
        {
          "internalType": "address",
          "name": "",
          "type": "address"
        }
      ],
      "name": "StakedReferrals",
      "outputs": [
        {
          "internalType": "address",
          "name": "firstReferral",
          "type": "address"
        },
        {
          "internalType": "address",
          "name": "secondReferral",
          "type": "address"
        },
        {
          "internalType": "address",
          "name": "thirdReferral",
          "type": "address"
        }
      ],
      "stateMutability": "view",
      "type": "function"
    },
    {
      "inputs": [
        {
          "internalType": "address",
          "name": "",
          "type": "address"
        },
        {
          "internalType": "uint256",
          "name": "",
          "type": "uint256"
        }
      ],
      "name": "StakedTokens",
      "outputs": [
        {
          "internalType": "uint256",
          "name": "stakedId",
          "type": "uint256"
        },
        {
          "internalType": "uint256",
          "name": "startingTime",
          "type": "uint256"
        },
        {
          "internalType": "uint256",
          "name": "rewardsEarned",
          "type": "uint256"
        },
        {
          "internalType": "uint256",
          "name": "amountStaked",
          "type": "uint256"
        }
      ],
      "stateMutability": "view",
      "type": "function"
    },
    {
      "inputs": [
        {
          "internalType": "address",
          "name": "",
          "type": "address"
        }
      ],
      "name": "Staker",
      "outputs": [
        {
          "internalType": "address",
          "name": "staker",
          "type": "address"
        },
        {
          "internalType": "uint256",
          "name": "amountStaked",
          "type": "uint256"
        },
        {
          "internalType": "uint256",
          "name": "tokensStaked",
          "type": "uint256"
        },
        {
          "internalType": "bool",
          "name": "referralsAdded",
          "type": "bool"
        },
        {
          "internalType": "bool",
          "name": "referralsRewarded",
          "type": "bool"
        }
      ],
      "stateMutability": "view",
      "type": "function"
    },
    {
      "inputs": [
        {
          "internalType": "address[]",
          "name": "_referrals",
          "type": "address[]"
        },
        {
          "internalType": "address",
          "name": "staker",
          "type": "address"
        }
      ],
      "name": "addReferral",
      "outputs": [],
      "stateMutability": "nonpayable",
      "type": "function"
    },
    {
      "inputs": [],
      "name": "bxg",
      "outputs": [
        {
          "internalType": "contract IERC20",
          "name": "",
          "type": "address"
        }
      ],
      "stateMutability": "view",
      "type": "function"
    },
    {
      "inputs": [
        {
          "internalType": "uint256",
          "name": "_amount",
          "type": "uint256"
        },
        {
          "internalType": "uint256",
          "name": "_timeStaked",
          "type": "uint256"
        }
      ],
      "name": "calculateRewards",
      "outputs": [
        {
          "internalType": "uint256",
          "name": "",
          "type": "uint256"
        }
      ],
      "stateMutability": "view",
      "type": "function"
    },
    {
      "inputs": [],
      "name": "owner",
      "outputs": [
        {
          "internalType": "address",
          "name": "",
          "type": "address"
        }
      ],
      "stateMutability": "view",
      "type": "function"
    },
    {
      "inputs": [],
      "name": "renounceOwnership",
      "outputs": [],
      "stateMutability": "nonpayable",
      "type": "function"
    },
    {
      "inputs": [
        {
          "internalType": "uint256",
          "name": "_amount",
          "type": "uint256"
        }
      ],
      "name": "stake",
      "outputs": [
        {
          "internalType": "uint256",
          "name": "",
          "type": "uint256"
        }
      ],
      "stateMutability": "nonpayable",
      "type": "function"
    },
    {
      "inputs": [
        {
          "internalType": "address",
          "name": "newOwner",
          "type": "address"
        }
      ],
      "name": "transferOwnership",
      "outputs": [],
      "stateMutability": "nonpayable",
      "type": "function"
    },
    {
      "inputs": [
        {
          "internalType": "uint256",
          "name": "_amount",
          "type": "uint256"
        },
        {
          "internalType": "uint256",
          "name": "_tokensId",
          "type": "uint256"
        }
      ],
      "name": "unStake",
      "outputs": [],
      "stateMutability": "nonpayable",
      "type": "function"
    },
    {
      "inputs": [
        {
          "internalType": "uint256",
          "name": "_amount",
          "type": "uint256"
        },
        {
          "internalType": "uint256",
          "name": "_tokensId",
          "type": "uint256"
        }
      ],
      "name": "withdraw",
      "outputs": [],
      "stateMutability": "nonpayable",
      "type": "function"
    }
  ],
  "bytecode": "0x60a060405262278d0060045562278d006005556201518060065560036007553480156200002b57600080fd5b5060405162001802380380620018028339810160408190526200004e91620000e8565b60016000556200005e3362000096565b60609190911b6001600160601b031916608052600280546001600160a01b0319166001600160a01b039092169190911790556200013f565b600180546001600160a01b038381166001600160a01b0319831681179093556040519116919082907f8be0079c531659141344cd1fd0a4f28419497f9722a3daafe3b4186f6b6457e090600090a35050565b60008060408385031215620000fb578182fd5b8251620001088162000126565b60208401519092506200011b8162000126565b809150509250929050565b6001600160a01b03811681146200013c57600080fd5b50565b60805160601c6116966200016c600039600081816102a6015281816103ef0152610acb01526116966000f3fe608060405234801561001057600080fd5b50600436106100b45760003560e01c8063715018a611610071578063715018a6146101e05780638da5cb5b146101e8578063a694fc3a1461020d578063b4e929d414610220578063c1931d20146102a1578063f2fde38b146102c857600080fd5b806307ebe4cc146100b957806332f23b4c1461011e578063372caeb814610184578063441a3e701461019957806348a88706146101ac57806356efeffd146101cd575b600080fd5b6100f96100c7366004611437565b600a60209081526000928352604080842090915290825290208054600182015460028301546003909301549192909184565b6040805194855260208501939093529183015260608201526080015b60405180910390f35b61015a61012c366004611416565b6009602052600090815260409020805460018201546002909201546001600160a01b03918216928216911683565b604080516001600160a01b0394851681529284166020840152921691810191909152606001610115565b610197610192366004611571565b6102db565b005b6101976101a7366004611571565b610567565b6101bf6101ba366004611571565b61081b565b604051908152602001610115565b6101976101db366004611460565b61085f565b610197610a14565b6001546001600160a01b03165b6040516001600160a01b039091168152602001610115565b6101bf61021b366004611559565b610a28565b61026b61022e366004611416565b60086020526000908152604090208054600182015460028301546003909301546001600160a01b0390921692909160ff8082169161010090041685565b604080516001600160a01b039096168652602086019490945292840191909152151560608301521515608082015260a001610115565b6101f57f000000000000000000000000000000000000000000000000000000000000000081565b6101976102d6366004611416565b610d51565b6102e3610dca565b600454336000908152600a6020908152604080832085845290915290206001015461030e9042611602565b106103605760405162461bcd60e51b815260206004820152601f60248201527f596f7572207265776172642069732072656164792c20636c61696d206974210060448201526064015b60405180910390fd5b336000908152600a602090815260408083208484529091529020600301548211156103d85760405162461bcd60e51b815260206004820152602260248201527f416d6f756e74206265696e6720756e7374616b656420697320746f6f206d7563604482015261682160f01b6064820152608401610357565b60405163a9059cbb60e01b81526001600160a01b037f0000000000000000000000000000000000000000000000000000000000000000169063a9059cbb906104269033908690600401611592565b602060405180830381600087803b15801561044057600080fd5b505af1158015610454573d6000803e3d6000fd5b505050506040513d601f19601f820116820180604052508101906104789190611539565b5033600090815260086020526040902060010154610497908390611602565b33600090815260086020908152604080832060010193909355600a8152828220848352905220600301546104cc908390611602565b336000908152600a60209081526040808320858452909152902060030181905561052057336000908152600a6020908152604080832084845290915281208181556001810182905560028101829055600301555b7f85082129d87b2fe11527cb1b3b7a520aeb5aa6913f88a3d8757fe40d1db02fdd3383604051610551929190611592565b60405180910390a16105636001600055565b5050565b61056f610dca565b336000908152600a602090815260408083208484529091529020600301548211156105e85760405162461bcd60e51b8152602060048201526024808201527f416d6f756e74206265696e67207769746864726177656e20697320746f6f206d6044820152637563682160e01b6064820152608401610357565b336000908152600a602090815260408083208484529091528120600101546106109042611602565b90506004548110156106735760405162461bcd60e51b815260206004820152602660248201527f4974206861736e2774206265656e206f6e65206d6f6e74682073696e6365207360448201526574616b696e6760d01b6064820152608401610357565b600061067f848361081b565b33600090815260086020526040902060030154909150610100900460ff166106cb576106ab3385610e24565b336000908152600860205260409020600301805461ff0019166101001790555b336000908152600860205260409020600101546106e9908590611602565b33600090815260086020908152604080832060010193909355600a81528282208683529052206003015461071e908590611602565b336000908152600a60209081526040808320878452909152902060030181905561077257336000908152600a6020908152604080832086845290915281208181556001810182905560028101829055600301555b6002546040516315490ebb60e01b81526001600160a01b03909116906315490ebb906107a49033908590600401611592565b600060405180830381600087803b1580156107be57600080fd5b505af11580156107d2573d6000803e3d6000fd5b505050507f47cee97cb7acd717b3c0aa1435d004cd5b3c8c57d70dbceb4e4458bbd60e39d43385604051610807929190611592565b60405180910390a150506105636001600055565b6000806004548361082c91906115c3565b905060008160075461083e91906115e3565b9050606461084c82876115e3565b61085691906115c3565b95945050505050565b6001600160a01b0381811660009081526009602052604090205416156108c75760405162461bcd60e51b815260206004820152601860248201527f526566657272616c7320616c72656164792061646465642100000000000000006044820152606401610357565b816000815181106108e857634e487b7160e01b600052603260045260246000fd5b602002602001015160096000836001600160a01b03166001600160a01b0316815260200190815260200160002060000160006101000a8154816001600160a01b0302191690836001600160a01b031602179055508160018151811061095d57634e487b7160e01b600052603260045260246000fd5b602002602001015160096000836001600160a01b03166001600160a01b0316815260200190815260200160002060010160006101000a8154816001600160a01b0302191690836001600160a01b03160217905550816002815181106109d257634e487b7160e01b600052603260045260246000fd5b6020908102919091018101516001600160a01b0392831660009081526009909252604090912060020180546001600160a01b0319169290911691909117905550565b610a1c611353565b610a2660006113ad565b565b6000610a32610dca565b336000908152600860205260409020600101546801158e460913d0000090610a5b9084906115ab565b1015610aa95760405162461bcd60e51b815260206004820181905260248201527f416d6f756e742073686f756c642062652061746c6561737420323020425847216044820152606401610357565b6040516323b872dd60e01b8152336004820152306024820152604481018390527f00000000000000000000000000000000000000000000000000000000000000006001600160a01b0316906323b872dd90606401602060405180830381600087803b158015610b1757600080fd5b505af1158015610b2b573d6000803e3d6000fd5b505050506040513d601f19601f82011682018060405250810190610b4f9190611539565b50336000908152600960205260408120546001600160a01b031615610b75576001610b78565b60005b336000818152600860205260409020549192506001600160a01b0390911614610c32576040805160a081018252338082526020808301878152600184860181815287151560608701908152600060808801818152968152600890955296909320945185546001600160a01b03919091166001600160a01b0319909116178555905190840155516002830155915160039091018054925115156101000261ff00199215159290921661ffff1990931692909217179055610c7e565b33600090815260086020526040902060010154610c509084906115ab565b33600090815260086020526040812060018101929092556002909101805491610c7883611619565b91905055505b60408051608081018252336000818152600860208181528583206002908101805480885242848901908152888a018781526060808b018f81528a8a52600a88528c8a20948a529387528b89209a518b55915160018b01555193890193909355516003909701969096559284905290815292548451928352928201879052928101919091527f5af417134f72a9d41143ace85b0a26dce6f550f894f2cbc1eeee8810603d91b6910160405180910390a1505033600090815260086020526040902060020154610d4c6001600055565b919050565b610d59611353565b6001600160a01b038116610dbe5760405162461bcd60e51b815260206004820152602660248201527f4f776e61626c653a206e6577206f776e657220697320746865207a65726f206160448201526564647265737360d01b6064820152608401610357565b610dc7816113ad565b50565b60026000541415610e1d5760405162461bcd60e51b815260206004820152601f60248201527f5265656e7472616e637947756172643a207265656e7472616e742063616c6c006044820152606401610357565b6002600055565b6001600160a01b038281166000908152600960205260408120549091829182911615801590610e6e57506001600160a01b0385811660009081526009602052604090206001015416155b8015610e9557506001600160a01b0385811660009081526009602052604090206002015416155b15610f30576064610ea78560016115e3565b610eb191906115c3565b6002546001600160a01b03878116600090815260096020526040908190205490516315490ebb60e01b8152939650918116926315490ebb92610ef99216908790600401611592565b600060405180830381600087803b158015610f1357600080fd5b505af1158015610f27573d6000803e3d6000fd5b5050505061130b565b6001600160a01b038581166000908152600960205260409020541615801590610f7557506001600160a01b038581166000908152600960205260409020600101541615155b8015610f9c57506001600160a01b0385811660009081526009602052604090206002015416155b156110b25768056bc75e2d63100000610fbd856709b6e64a8ec600006115e3565b610fc791906115c3565b925068056bc75e2d63100000610fe585670429d069189e00006115e3565b610fef91906115c3565b6002546001600160a01b03878116600090815260096020526040908190205490516315490ebb60e01b8152939550918116926315490ebb926110379216908790600401611592565b600060405180830381600087803b15801561105157600080fd5b505af1158015611065573d6000803e3d6000fd5b50506002546001600160a01b03888116600090815260096020526040908190206001015490516315490ebb60e01b815292821694506315490ebb9350610ef9929116908690600401611592565b6001600160a01b0385811660009081526009602052604090205416158015906110f757506001600160a01b038581166000908152600960205260409020600101541615155b801561111f57506001600160a01b038581166000908152600960205260409020600201541615155b1561130b5768056bc75e2d63100000611140856709b6e64a8ec600006115e3565b61114a91906115c3565b925068056bc75e2d63100000611168856702c68af0bb1400006115e3565b61117291906115c3565b915068056bc75e2d631000006111908567016345785d8a00006115e3565b61119a91906115c3565b6002546001600160a01b03878116600090815260096020526040908190205490516315490ebb60e01b8152939450918116926315490ebb926111e29216908790600401611592565b600060405180830381600087803b1580156111fc57600080fd5b505af1158015611210573d6000803e3d6000fd5b50506002546001600160a01b03888116600090815260096020526040908190206001015490516315490ebb60e01b815292821694506315490ebb935061125d929116908690600401611592565b600060405180830381600087803b15801561127757600080fd5b505af115801561128b573d6000803e3d6000fd5b5050600280546001600160a01b03898116600090815260096020526040908190209093015492516315490ebb60e01b815291811694506315490ebb93506112d89216908590600401611592565b600060405180830381600087803b1580156112f257600080fd5b505af1158015611306573d6000803e3d6000fd5b505050505b60408051848152602081018490529081018290527f0e59b137b474114b39e6b70a416a41e1a1278ec2dfad0261d6d9ad2621635bbb9060600160405180910390a15050505050565b6001546001600160a01b03163314610a265760405162461bcd60e51b815260206004820181905260248201527f4f776e61626c653a2063616c6c6572206973206e6f7420746865206f776e65726044820152606401610357565b600180546001600160a01b038381166001600160a01b0319831681179093556040519116919082907f8be0079c531659141344cd1fd0a4f28419497f9722a3daafe3b4186f6b6457e090600090a35050565b80356001600160a01b0381168114610d4c57600080fd5b600060208284031215611427578081fd5b611430826113ff565b9392505050565b60008060408385031215611449578081fd5b611452836113ff565b946020939093013593505050565b60008060408385031215611472578182fd5b823567ffffffffffffffff80821115611489578384fd5b818501915085601f83011261149c578384fd5b81356020828211156114b0576114b061164a565b8160051b604051601f19603f830116810181811086821117156114d5576114d561164a565b604052838152828101945085830182870184018b10156114f3578889fd5b8896505b8487101561151c57611508816113ff565b8652600196909601959483019483016114f7565b50965061152c90508782016113ff565b9450505050509250929050565b60006020828403121561154a578081fd5b81518015158114611430578182fd5b60006020828403121561156a578081fd5b5035919050565b60008060408385031215611583578182fd5b50508035926020909101359150565b6001600160a01b03929092168252602082015260400190565b600082198211156115be576115be611634565b500190565b6000826115de57634e487b7160e01b81526012600452602481fd5b500490565b60008160001904831182151516156115fd576115fd611634565b500290565b60008282101561161457611614611634565b500390565b600060001982141561162d5761162d611634565b5060010190565b634e487b7160e01b600052601160045260246000fd5b634e487b7160e01b600052604160045260246000fdfea26469706673582212205dd5431b91353b3cbb72d1ac7451792326ace718bb4a67aab7eca6675034542964736f6c63430008040033",
  "linkReferences": {},
  "deployedLinkReferences": {}
}